:10093F0053455420434F4E4649472E0A0025780A07
:10094F00004C69676874206F6E204E756D204C6F78
:10095F00636B204C4544210A004C69676874206F13
:10096F006666204E756D204C6F636B204C4544219D
:10097F000A007374617274202E2E2E0A00494430BF
:10098F00203D20253032782025303278200A00494A
:10099F004431203D20253032782025303278200A0E
:1009AF0000494432203D20253032782025303278DE
:1009BF00200A0012011001000000083D410721002C
:1009CF00000000000109023B00020100A0320904EF
:1009DF0000000103010100092111010001223E0065
:1009EF000705810308000A09040100010301020041
:1009FF000921100100012234000705820304000AB7
:100A0F0005010906A101050719E029E715002501D0
:100A1F00750195088102950175088101950375018E
:100A2F000508190129039102950575019101950694
:100A3F00750826FF000507190029918100C00501DF
:100A4F000902A1010901A1000509190129031500D6
:100A5F002501750195038102750595018101050138
:100A6F000930093109381581257F750895038106ED
:020A7F00C0C0F5
:100D2B00046100000000084C0000000000000000FF
:100C1700C2EAE4F5E275D18043D10443E24075E5C9
:100C27000075E450E5EB54FE4404F5EB75D41275FA
:100C3700ED0075EC0053EAF375DC0275EF0075EE15
:100C47000AE5EA54EF4440F5EA75D212E4F5E343C6
:0E0C5700E22943D10175D8FF75E107D2EA22E8
:100CCE00780A7C007D017B007A00794C7E007F08DB
:0A0CDE001207BD75D30853D2FC22A3
:100CE80078507C007D017B007A0079617E007F046A
:0A0CF8001207BD75D50453D4FC2289
:030043000203A213
:0D03A200C0E0C0F0C083C082C0D075D0089C
:1003AF0075230020D9030206BEE5D9543F7003021E
:1003BF00068724E0700302063214601924F16026C8
:1003CF00240E60030206BC75D500E5D454FC44022C
:1003DF00F5D40206BC75D300E5D254FC4402F5D225
:1003EF007556010206BC85DB23E523640860030212
:1003FF000610900006E0F557A3E07007E557D39479
:10040F007F400375577F752300900001E0F55890EA
:10041F000000E054606018E5581424FD4003020604
:10042F001324FB24FD40030206138000020610E58F
:10043F0058B40B00400302060E90044FF82828739F
:10044F000205F602054202060E02058002060E02A2
:10045F00050702047002060E0205100205260206A9
:10046F0013900003E024FE601624E0602024217026
:10047F00457565FF7566097567C2752312803A75F4
:10048F0065FF7566097567D475233B802C90000452
:10049F00E0FF700E7565FF75660A75670F75233E71
:1004AF008017EFB4010E7565FF75660A75674D7598
:1004BF002334800580007523FFE557D39523400330
:1004CF00852357E557C3940840047F088002AF5730
:1004DF008F237E0078007C007D01AB65AA66A9673B
:1004EF001207BDC3E5579523F557E5232567F56734
:1004FF00E43566F566020613900002E0F557020632
:10050F0013900000E554F0E557C394015003020621
:10051F0013752301020613900002E0F554E55470A1
:10052F00030206137BFF7A09793F1200A875710148
:10053F00020613900000E0541FFF6402702A90001F
:10054F0004E014601B2480600D147019E5D454BCB2
:10055F004402F5D48012E5D254BC4402F5D280088F
:10056F0053D27380037523FFEF7003020613020645
:10057F0010900000E0541FFD701B900003E0FE90F0
:10058F000002E0FBEB64014E70099009DB9320E55C
:10059F0073806E806CED6402704B900003E0FE90F0
:1005AF000002E0FDED4E703B900005E0FE90000470
:1005BF00E0FDEDFFEE702AEF24FE6011248160173D
:1005CF0014701EE5D454BF4403F5D48037E5D454DA
:1005DF007F440CF5D4802DE5D254BF4403F5D2806F
:1005EF0023801E801C801A900000E4F0A3F0E557D2
:1005FF00C394024005752302800A85572380058026
:10060F00007523FFE523B4FF097558FF75DCCF0292
:10061F0006BCE5236004F5DD800375DD0075DCC0E5
:10062F000206BCE55824FB603D147044E557C394A3
:10063F000840047F088002AF578F237E0078007C2C
:10064F00007D01AB65AA66A9671207BDC3E5579583
:10065F0023F557E5232567F567E43566F5668523AA
:10066F00DD63DC408047E5E354804557F5E38003C5
:10067F0075DD0075DC02803585DB23E55864097074
:10068F0029900000E0FF60137BFF7A09794CF53B5E
:10069F001200A87BFF7A097950800C900000E0705F
:1006AF00097BFF7A0979681200A863DC80C2D93010
:1006BF00D81275DC0275D21075D41275E300C2DA48
:1006CF00C2D9C2D830DA09C2DAE5DA30E2058003DE
:0306DF0075D8FFCC
:0B06E200D0D0D082D083D0F0D0E03226
:100CB000120D4ABF57FAE4F538120D4A7468253808
:0D0CC000F8C6EFC60538E538C3940940ECCE
:010CCD002204
:100C6500E56824FE601E047031AF6B120D52784C9E
:100C75007C007D007B007A0079697E007F08120781
:100C8500BD020CCE78617C007D007B007A0079691D
:100C95007E007F041207BD020CE8E5D254FC440235
:0B0CA500F5D2E5D454FC4402F5D42243
:060D5A00120CB0020C6552
:100A8100120D197F057E0012002A120BA37BFF7A3B
:100A91000979811200A87BFF7A09798C903FFAE4E9
:100AA10093753B00F53CA3E493753D00F53E1200C0
:100AB100A87BFF7A09799E903FFCE493753B00F592
:100AC1003CA3E493753D00F53E1200A87BFF7A0933
:100AD10079B0903FFEE493753B00F53CA3E4937538
:100AE1003D00F53E1200A8120C17D2AFE4F5D3F584
:100AF100D5F556F571E5716003120D5AE571600D7A
:100B010020950A120CCE7F0A7E0012002A7F647E95
:060B11000012002A80DF43
:100D190075A15575A1AAE5B954F84404F5B9E4F5E6
:020D2900A12205
:0E0D3C00EF4E600905A1EF1F70F61E80F32236
:10002A00AD07AC06ED4C600E7FE87E03120D3CED89
:07003A001D70F11C80EE2295
:040D600043C6102254
:100BA300C29FD29EC29DC2CDC2CC438780E4753B17
:100BB30082F53AF539F5387B0AFAF9F8AF3BAE3AE4
:100BC300AD39AC3812081FAF038F3CAF3BAE3AAD23
:100BD30039AC38E47B0AFAF9F812081F8F3B8E3AD6
:100BE3008D398C38E53CC394054011EF2401F53B66
:100BF300E43EF53AE43DF539E43CF538E589540F34
:100C03004420F58943C9A0E53BF404F58DD28ED287
:030C130099D29CD7
:010C160022BB
:080D4A003098FDC298AF992218
:080D52008F993099FDC299222E
:100D020075A15575A1AAEF600543B101800353B1E6
:070D1200FEE4F5A1F5FF224C
:030D64008FFF22DC
:03000000020B17D9
:0C0B1700787FE4F6D8FD758171020B5E5A
:1006ED00E709F608DFFA8046E709F208DFFA803EEF
:1006FD0088828C83E709F0A3DFFA8032E309F608DC
:10070D00DFFA8078E309F208DFFA807088828C8343
:10071D00E309F0A3DFFA806489828A83E0A3F608F7
:10072D00DFFA805889828A83E0A3F208DFFA804CD1
:10073D0080D280FA80C680D4806980F280338010A8
:10074D0080A680EA809A80A880DA80E280CA803311
:10075D0089828A83ECFAE493A3C8C582C8CCC58389
:10076D00CCF0A3C8C582C8CCC583CCDFE9DEE78059
:10077D000D89828A83E493A3F608DFF9ECFAA9F0D8
:10078D00EDFB2289828A83ECFAE0A3C8C582C8CC2E
:10079D00C583CCF0A3C8C582C8CCC583CCDFEADE47
:1007AD00E880DB89828A83E493A3F208DFF980CCA9
:1007BD0088F0EF60010E4E60C388F0ED2402B404A2
:1007CD000050B9F582EB2402B4040050AF23234549
:0607DD00822390073D732A
:1007E30075F008758200EF2FFFEE33FECD33CDCCCD
:1007F30033CCC58233C5829BED9AEC99E582984050
:100803000CF582EE9BFEED9AFDEC99FC0FD5F0D62C
:10081300E4CEFBE4CDFAE4CCF9A88222B800C1B956
:100823000059BA002DEC8BF084CFCECDFCE5F0CB94
:10083300F97818EF2FFFEE33FEED33FDEC33FCEBCD
:1008430033FB10D703994004EB99FB0FD8E5E4F988
:10085300FA227818EF2FFFEE33FEED33FDEC33FC75
:10086300C933C910D7059BE99A4007EC9BFCE99A69
:10087300F90FD8E0E4C9FAE4CCFB2275F010EF2FAE
:10088300FFEE33FEED33FDCC33CCC833C810D707AE
:100893009BEC9AE899400AED9BFDEC9AFCE899F8E9
:0E08A3000FD5F0DAE4CDFBE4CCFAE4C8F9227C
:10004600E547243BF8E60547227838301002783B2E
:10005600E475F0011209090208B12009EB7F2ED2DE
:10006600098018EF540F2490D43440D4FF300D0B80
:10007600EF24BFB41A0050032461FFE5486002155F
:1000860048054BE54B7002054A30100D7838E4758B
:10009600F001120909EF0208F70200037403D210F7
:1000A6008003E4C210F5478B388A39893AE4F5486B
:1000B600F54AF54BE54860077F2012008180F5750B
:1000C60049FFC20AC209C20BC20CC20EC20FC2113C
:1000D60012004FFF700D3010057F00120092AF4BDB
:1000E600AE4A22B4255FC2D5C20D12004FFF24D0FE
:1000F600B40A00501A75F00A784830D50508B6FFDC
:100106000106C6A426F620D5047002D20C80D92496
:10011600CFB41A00EF5004C2E5D20D020292D20A01
:1001260080C6D20980C0D20B80BCD2D580BAD20E8E
:1001360080B47F20120081200B077401B54800406F
:10014600F1120046FF1200810200BAD211D20F80CE
:1001560095120046FB120046FA120046F94A4B7009
:100166000679637A037BFF200B2EE548602A7E0022
:100176008E827583001208CA60060EEE654970F01D
:10018600C2D5EBC0E0EAC0E0E9C0E0EE1202D9D089
:10019600E0F9D0E0FAD0E0FB1208B1FF60AAEBC0AC
:1001A600E0EAC0E0E9C0E0120081D0E02401F9D025
:1001B600E03400FAD0E0FBE5490460DCD549D9809B
:1001C600877BFF7A0279D5D20B809C7910800279E1
:1001D60008C20FC2118008D2D5790A8004790AC2F2
:1001E600D5E549047002F549E4FAFDFEFF12004622
:1001F600FC7B08200A13120046FD7B1030090A1208
:100206000046FE120046FF7B20EC3382D592D55085
:1002160013C3E43009069FFFE49EFEE4200A039D13
:10022600FDE49CFCE4CBF8C20AEC700CCFCECDCC3E
:10023600E824F8F870F38017C3EF33FFEE33FEEDD2
:1002460033FDEC33FCEB33FB994002FB0FD8E9EBB3
:10025600300A05F8D0E0C448B20AC0E00AEC4D4EB8
:100266004F78207B0070C2EAB5490040BCC0E0125E
:1002760002DBD0F0D0E0200A04C4C0E0C4B20AC059
:10028600F012006AD0F0D5F0EB0200BA120919019B
:10029600575301D15801284C01244201D54F01DDA5
:0F02A6004401DD49013D4301E35501C74601C74E
:1002B5004501C747038350012C2D01302E01532BD7
:1002C500013423015120036C2A00EC480000014B46
:1002D5003F3F3F00790AA2D5200C14300E09B91012
:1002E500020404B9080104A2D5200F02500104201C
:1002F5000B68920BB548005034C0E07F20300C19D4
:100305007F30A20B720F720E500F120332C20BC256
:100315000FC20EC2117F30800F300E03E9C0E0120C
:100325000081300E03D0E0F9D0E0B548CC300E178F
:100335007F30B9100C1200817F58300D077F78800F
:1003450003B90803120081300B057F2D0200817F60
:10035500202011F87F2B200FF322920B80CF286EDF
:10036500756C6C2900D20A120046300AF8C20A7868
:100375004830D50108F60200EC2D504349581200CB
:10038500462403B405004001E490037E93120072F5
:0D039500743A120072D20C7548040201D1B6
:100B2300020A81E493A3F8E493A34003F68001F25D
:100B330008DFF48029E493A3F85407240CC8C333D3
:100B4300C4540F4420C8834004F456800146F6DFA2
:100B5300E4800B0102040810204080900D2BE47EFA
:100B6300019360BCA3FF543F30E509541FFEE49397
:100B7300A360010ECF54C025E060A840B8E493A35E
:100B8300FAE493A3F8E493A3C8C582C8CAC583CA89
:100B9300F0A3C8C582C8CAC583CADFE9DEE780BE41
:010D3B0000B7
:1008B100BB010689828A83E0225002E722BBFE0245
:0908C100E32289828A83E4932278
:1008CA00BB010CE58229F582E5833AF583E02250E3
:1008DA0006E92582F8E622BBFE06E92582F8E2222D
:0D08EA00E58229F582E5833AF583E4932247
:1008F700BB010689828A83F0225002F722BBFE01E0
:02090700F322D9
:10090900FAE6FB0808E6F925F0F618E6CA3AF622EF
:10091900D083D082F8E4937012740193700DA3A36D
:1009290093F8740193F5828883E473740293686081
:06093900EFA3A3A380DF81
:10000300EFB40A07740D12000E740A309811A89900
:10001300B8130CC2983098FDA899C298B811F6305D
:0700230099FDC299F5992235
:00000001FF
